:100000000C94C5000C94ED000C94ED000C94ED00E4
:100010000C94ED000C94ED000C94ED000C94ED00AC
:100020000C94ED000C94ED000C94CA030C9439046C
:100030000C94ED000C94ED000C94ED000C94ED008C
:100040000C94ED000C946B060C94ED000C94ED00F8
:100050000C94ED000C94ED000C94ED000C948003D6
:100060000C94ED000C94ED000C94ED000C94ED005C
:100070000C94ED000C94ED000C94ED000C94ED004C
:100080000C94ED000C94ED000C94ED000C94ED003C
:100090000C94ED000C94ED000C94ED000C94ED002C
:1000A0000C94ED000C94ED000C94ED00080B000294
:1000B0000202010009040000010202000005240000
:1000C0001001052401010104240206052406000193
:1000D0000705810310004009040100020A00000026
:1000E00007050202400000070583024000000403E8
:1000F000090412010002EF02014041234180000186
:100100000102030141726475696E6F204C4C43001B
:1001100041726475696E6F2059756E0000000000B1
:10012000250028002B002E003100040404040403E1
:100130000405020202020403020202020606060687
:1001400006060404020202040404080201104080AE
:1001500040102040804080080204018040201002AE
:1001600001108010204040200000000200090F0014
:1001700000030401000C000000000000000000006B
:100180000000000000000000020711241FBECFEF96
:10019000DAE0DEBFCDBF11E0A0E0B1E0E6E3F0E1E0
:1001A00002C005900D92AC37B107D9F723E0ACE758
:1001B000B1E001C01D92AB30B207E1F710E0C5EC31
:1001C000D0E004C02197FE010E941308C43CD1076F
:1001D000C9F70E947A070C9419080C940000FC01DE
:1001E0008091BF01882311F13FB7F89482E080939A
:1001F000E9002091F200822F90E01816190614F4FD
:1002000081E090E0882339F0289844E64093BE01CD
:100210004091F1004083222339F02091F200211116
:1002200003C02BE62093E8003FBF08958FEF9FEFB8
:1002300008952FB7F89483E08093E9009091E80047
:10024000892F807295FF04C09091F20080E4891B91
:100250002FBF0895CF93DF931F92CDB7DEB7698389
:10026000DC01ED91FC910280F381E02D41E050E052
:10027000BE016F5F7F4F09950F90DF91CF91089579
:1002800083E08093E9008091F200882319F08AE3EB
:100290008093E80008950E94190190E00895CF939B
:1002A000DF931F92CDB7DEB7FC018485958597FD5E
:1002B00008C02FEF3FEF358724870F90DF91CF9154
:1002C0000895CE0101960E94EF00019719F48981EB
:1002D00090E0F3CF8FEF9FEFF0CF0F931F93CF936B
:1002E000DF931F92CDB7DEB78C01FC018485958525
:1002F00097FF0BC0CE0101960E94EF00019771F4A9
:10030000898190E0F80195878487F8018485958537
:100310000F90DF91CF911F910F9108958FEF9FEF75
:10032000F1CFFC018485958597FD0BC09FB7F894AC
:1003300082E08093E9008091F2009FBF90E00196F7
:1003400008959FB7F89482E08093E9008091F200CD
:100350009FBF90E008958091B40181110DC082E0AB
:100360008093B00184E08093B1011092B3011092A8
:10037000B20181E08093B40180EB91E00895282FD1
:1003800030E0F901E859FE4F9491F901E75BFE4F27
:100390008491265D3E4FF9012491222309F430C057
:1003A0009923E9F091509F30D0F4E92FF0E0E55225
:1003B000FE4F0C94130809020D02EA010102050226
:1003C000EF01EF01EF01100216021A021E022402D1
:1003D000EF012802909180009F7790938000E22F98
:1003E000F0E0EE0FFF1FE45EFE4FA591B4919FB7C2
:1003F000F894EC91611132C080958E238C939FBF4D
:100400000895909180009F7DE8CF90918000977F24
:10041000E4CF94B59F7794BDE2CF94B59F7DFBCF99
:10042000909190009F7790939000D9CF90919000F9
:100430009F7DF9CF90919000977FF5CF9091C0006C
:100440009F779093C000CBCF9091C0009F7DF9CF54
:100450009091C200977F9093C200C1CF8E2BCECFD8
:100460003FB7F8948091AC019091AD01A091AE019D
:10047000B091AF0126B5A89B05C02F3F19F001969A
:10048000A11DB11D3FBFBA2FA92F982F8827BC01EE
:10049000CD01620F711D811D911D42E0660F771F16
:1004A000881F991F4A95D1F70895CF92DF92EF9256
:1004B000FF920E9430026B017C010E9430026C1995
:1004C0007D098E099F09683E734081059105A8F357
:1004D000FF90EF90DF90CF9008958F929F92AF9210
:1004E000BF92CF92DF92EF92FF920F931F93CF9321
:1004F000DF936C017B018A0180910B01882309F451
:1005000058C08091BF01882309F453C08091BD0178
:1005100080FF05C08091E00082608093E000E801E8
:10052000B12C8AEFA82E93E0892E2AE3922E2097F1
:1005300011F4BB20B9F10E941901811106C0AA94DF
:10054000AA20B9F10E945502F2CF8C171D0611F0B6
:100550000CF08C2F9FB7F8948092E9002091E8006E
:1005600025FD02C09FBFE3CF282F30E0C21BD30B75
:10057000F701815020F041914093F100FACFE20E53
:10058000F31EBB2021F09092E800B12CEBCF8091BC
:10059000E80085FDE7CF9092E800BB24B394209754
:1005A00009F3F3CF5D9884E68093BC011016110621
:1005B0003CF081E090E0F6019383828310E000E05C
:1005C000C801DF91CF911F910F91FF90EF90DF90C5
:1005D000CF90BF90AF909F908F9008954091A301CE
:1005E0005091A4012091A1013091A201421753071B
:1005F000B4F49091E8009570E1F39091E80092FDD9
:1006000019C08093F1008091A3019091A4010196FB
:100610008F739927892B19F48EEF8093E8008091CE
:10062000A3019091A40101969093A4018093A3014A
:1006300081E0089580E00895DF92EF92FF920F939A
:100640001F93CF93DF93D82E8A01EB017B01E40E39
:10065000F51ECE15DF0559F0D7FE12C0FE018491BC
:100660000E94EE0221968111F4CF0FEF1FEFC80117
:10067000DF91CF911F910F91FF90EF90DF90089540
:100680008881EECF0F931F93CF93DF931F92CDB747
:10069000DEB782E0898342E450E06CEA70E080E8F3
:1006A0000E941C030E94AB01DC0112960D911C916B
:1006B0000115110589F0D801ED91FC910280F381BB
:1006C000E02DBE016F5F7F4FC801099597FD04C003
:1006D000F80100851185ECCF89810F90DF91CF91D2
:1006E0001F910F910895615030F02091F100FC01AD
:1006F00020830196F8CF289884E68093BE01089560
:100700001F920F920FB60F9211242F933F938F9346
:100710009F93AF93BF938091A8019091A901A0915D
:10072000AA01B091AB013091A70123E0230F2D372F
:1007300058F50196A11DB11D2093A7018093A80132
:100740009093A901A093AA01B093AB018091AC0151
:100750009091AD01A091AE01B091AF010196A11DA4
:10076000B11D8093AC019093AD01A093AE01B09305
:10077000AF01BF91AF919F918F913F912F910F90BA
:100780000FBE0F901F90189526E8230F0296A11D0B
:10079000B11DD2CF1F920F920FB60F9211248F93DB
:1007A0009F938091E1009091E100937F9093E1000D
:1007B00083FF0FC01092E90091E09093EB0010923C
:1007C000EC0092E39093ED001092BF0198E09093BB
:1007D000F00082FF22C093E09093E9009091F20034
:1007E000992319F09AE39093E8009091BC01992322
:1007F00041F09091BC0191509093BC01911101C0C6
:100800005D9A9091BE01992341F09091BE01915063
:100810009093BE01911101C0289A84FF18C0809165
:10082000E2008E7E81608093E2008091E1008F7E05
:100830008093E1008091BD018E7E80618093BD0137
:100840009F918F910F900FBE0F901F90189580FF72
:10085000F7CF8091E2008E7E80618093E2008091EC
:10086000E1008E7E8093E1008091BD018E7E8160EB
:10087000E5CF1F920F920FB60F921124CF92DF9205
:10088000EF92FF920F931F932F933F934F935F939A
:100890006F937F938F939F93AF93BF93EF93FF9348
:1008A000CF93DF93CDB7DEB76C97DEBFCDBF10928D
:1008B000E9008091E80083FF25C068E0CE014596FD
:1008C0000E94730382EF8093E8008D8987FF39C00F
:1008D0009091E80090FFFCCF982F907609F034C1FA
:1008E0009E894F89588D2F89F88C911131C080389D
:1008F00061F58091A6018093F1001092F1008EEFD6
:100900008093E8006C960FB6F894DEBF0FBECDBFA3
:10091000DF91CF91FF91EF91BF91AF919F918F9117
:100920007F916F915F914F913F912F911F910F9107
:10093000FF90EF90DF90CF900F900FBE0F901F9021
:1009400018959EEF9093E800C7CF1092F100D5CF95
:10095000913059F48111D3CF4130510581F6809106
:10096000A6018D7F8093A601CACF933049F48111EF
:10097000C6CF4130510519F68091A6018260F2CFB1
:10098000953041F48091E80080FFFCCF20682093EF
:10099000E300B5CF963009F0A9C00B8D1C8D22E085
:1009A0001092E9001092A4011092A301F2122EC03D
:1009B0001092A2011092A1010E9442031F8299E0AD
:1009C0009983FA8291E09E8390EA98879AEF9987BB
:1009D0002091A3013091A401275F3F4F3C832B83DB
:1009E0008D831092E9001092A4011092A30110933C
:1009F000A2010093A10149E050E0BE016F5F7F4F6B
:100A000080E00E941C030E94420379CF1093A20150
:100A10000093A1010E94AB01DC0112960D911C9183
:100A20000115110509F451C1D801ED91FC91048023
:100A3000F581E02DBE016B5E7F4FC80109950097DF
:100A400009F03EC1F80100851185EACFF3E0FF12FD
:100A50000EC08F89882309F440C0823061F440E8D9
:100A60006BE080E191E00E94CF06811148CF81E2E6
:100A70008093EB0047CF813029F440E86BE084E0BD
:100A800091E0F1CF833099F70E94AB01DC0112961F
:100A9000ED90FC908E010F5F1F4F6801E114F1048F
:100AA00079F0D701ED91FC910680F781E02DB80136
:100AB000C7010995080F111DF701E084F184EECFFD
:100AC000D8011C92F60101900020E9F73197BF018F
:100AD0006C197D0940E0C601C6CF6EEE70E0FB01E7
:100AE000449150E080E80E941C0309CF973009F43C
:100AF000BECF983021F481E08093F10000CF99308F
:100B000009F0FDCE837009F0B2CFE3E6F1E081E0B9
:100B100031E096E32191222371F08093E900309334
:100B2000EB00DF0111972C912093EC009093ED00E6
:100B30008F5F873079F78EE78093EA001092EA00A2
:100B40008F898093BF01DBCE8B8D9C8D1092E90045
:100B50001092A4011092A3019093A2018093A1018D
:100B6000898D811192C08E899D89913A49F4813293
:100B700009F07DCF47E050E064E071E080E0B3CF62
:100B8000913209F074CF833269F48F89988DB0E087
:100B9000A0E08093000190930101A0930201B09323
:100BA0000301ADCE803269F48091E80082FFFCCF72
:100BB00067E084E091E00E9473038BEF8093E8008C
:100BC0009ECE823209F09BCE8F8980930B01EEEF8F
:100BD000FFE7859194918B3F9C4D51F1E0E0F8E067
:100BE0008091040190910501A0910601B091070147
:100BF000803B9440A105B105F1F480910B0180FD8B
:100C00001AC0EE3F8AE0F80789F587E797E79183F6
:100C10008083809160008093A50188E19BE00FB6FE
:100C2000F894A895809360000FBE9093600067CE03
:100C3000EEEFFAE0D5CF808191818737974709F0B1
:100C40005ECEA8958091600088618093600080915D
:100C5000A50180936000EE3F2AE0F20789F08091C1
:100C6000FE0A9091FF0A9183808349CE8081918111
:100C70008737980751F29093FF0A8093FE0AC5CFF9
:100C80001092FF0A1092FE0A3ACE0E94AB01DC01DC
:100C900012960D911C910115110509F4E8CED801A9
:100CA000ED91FC910190F081E02DBE016B5E7F4FD4
:100CB000C8010995811123CEF80100851185EBCF7C
:100CC000181619060CF41BCED2CEF1E0FF12BECEE0
:100CD00062EF70E004CF1F920F920FB60F921124B3
:100CE0002F933F938F939F93EF93FF938091A00156
:100CF00087FF1FC010928500109284008091A00190
:100D00008F5F8093A0018091A00187FF04C0809134
:100D1000A0018C30ACF08091840090918500049605
:100D200080349C4990F180918400909185000496D4
:100D30002EC08091A00187FFE1CF8091A001DECF7E
:100D40002091840030918500E091A0018E2FEE0F5C
:100D5000990BFC01EE0FFF1FE80FF91FE458FE4F3F
:100D600081819281820F931F9093890080938800E4
:100D70008091A001FF91EF919F918F913F912F91D1
:100D80000F900FBE0F901F90189580E49CE99093F0
:100D90008900809388008FEF8093A001EBCFEF92C2
:100DA000FF920F931F93CF93DF93F82E192FE62E08
:100DB000042F81E0860F880F0E94EE0283E00E94DC
:100DC000EE02CF2DD12FEC0EFD2EF11CCE15DF053E
:100DD000B9F007FF13C0FE0184910E94EE02182FA4
:100DE00080E00E94EE02812321968111EFCFDF91F6
:100DF000CF911F910F91FF90EF9008958881EDCFD3
:100E000081E0F5CFE0ECF1E01382128288EE93E00E
:100E1000A0E0B0E084839583A683B7838DE691E05C
:100E2000918380838FEF9FEF9587848780E1ECE04B
:100E3000F1E0A0E1B2E001900D928A95E1F78CE03B
:100E4000ECE1F1E0A0E2B2E001900D928A95E1F7C9
:100E50008CE0E8E2F1E0ACE2B2E001900D928A951C
:100E6000E1F78CE0E4E3F1E0A8E3B2E001900D9259
:100E70008A95E1F78CE0E0E4F1E0A4E4B2E00190CF
:100E80000D928A95E1F786E1ECE4F1E0A0E5B2E0AD
:100E900001900D928A95E1F7E6E6F2E080E4DF0149
:100EA0001D928A95E9F780E1E6EAF2E0DF01982FEA
:100EB0001D929A95E9F7E6EBF2E0DF011D928A9523
:100EC000E9F780E2E6ECF2E0DF01982F1D929A95B7
:100ED000E9F7E6EEF2E0DF011D928A95E9F710925C
:100EE0000603109207031092080310920A0310924F
:100EF00009030895789484B5826084BD84B58160C7
:100F000084BD85B5826085BD85B5816085BD8091D4
:100F10006E00816080936E0010928100809181004C
:100F20008260809381008091810081608093810044
:100F30008091800081608093800080919100826028
:100F400080939100809191008160809391008091C5
:100F500090008160809390008091C10084608093B4
:100F6000C1008091C10082608093C1008091C10066
:100F700081608093C1008091C30081608093C30031
:100F80008091C00082608093C0008091C200816027
:100F90008093C20080917A00846080937A0080916F
:100FA0007A00826080937A0080917A0081608093D9
:100FB0007A0080917A00806880937A001092BF0155
:100FC0001092A6011092BD018091D700816080939C
:100FD000D70080EA8093D80089B5806189BD89B542
:100FE000826089BD09B400FEFDCF0E945502809148
:100FF000D8008F7C80618093D8008091E000807F52
:101000008093E0008091E1008E7E8093E1008DE08E
:101010008093E200559A209AC0E0D0E02097F1F347
:101020000E940000FBCFEE0FFF1F0590F491E02D12
:061030000994F894FFCFC3
:10103600FFFFFFFF00E100000000000000000000CD
:101046000D0E03040507090B06080A0C040407071E
:1010560008080B0B0C0C0F0F0505080809090A0AEE
:101066000D0D0E0E0504070609080B0A0D0C0F0ED2
:101076000405060708090A0B0C0D0E0F080D0A0DCC
:10108600080005080305080808202008202020205D
:10109600200800C18081000000000000002A016DC8
:0C10A600024B01400191014F016D01005F
:00000001FF
